{
  "_format": "hh-sol-artifact-1",
  "contractName": "TronPaySubscription",
  "sourceName": "contracts/TronPaySubscription.sol",
  "abi": [
    {
      "inputs": [],
      "stateMutability": "nonpayable",
      "type": "constructor"
    },
    {
      "anonymous": false,
      "inputs": [
        {
          "indexed": true,
          "internalType": "uint256",
          "name": "subscriptionId",
          "type": "uint256"
        },
        {
          "indexed": true,
          "internalType": "address",
          "name": "sender",
          "type": "address"
        },
        {
          "indexed": true,
          "internalType": "address",
          "name": "receiver",
          "type": "address"
        },
        {
          "indexed": false,
          "internalType": "uint256",
          "name": "amount",
          "type": "uint256"
        },
        {
          "indexed": false,
          "internalType": "uint256",
          "name": "timestamp",
          "type": "uint256"
        }
      ],
      "name": "PaymentExecuted",
      "type": "event"
    },
    {
      "anonymous": false,
      "inputs": [
        {
          "indexed": true,
          "internalType": "uint256",
          "name": "subscriptionId",
          "type": "uint256"
        },
        {
          "indexed": true,
          "internalType": "address",
          "name": "oldReceiver",
          "type": "address"
        },
        {
          "indexed": true,
          "internalType": "address",
          "name": "newReceiver",
          "type": "address"
        }
      ],
      "name": "ReceiverUpdated",
      "type": "event"
    },
    {
      "anonymous": false,
      "inputs": [
        {
          "indexed": true,
          "internalType": "uint256",
          "name": "subscriptionId",
          "type": "uint256"
        }
      ],
      "name": "SubscriptionCancelled",
      "type": "event"
    },
    {
      "anonymous": false,
      "inputs": [
        {
          "indexed": true,
          "internalType": "uint256",
          "name": "subscriptionId",
          "type": "uint256"
        },
        {
          "indexed": true,
          "internalType": "address",
          "name": "sender",
          "type": "address"
        },
        {
          "indexed": true,
          "internalType": "address",
          "name": "receiver",
          "type": "address"
        },
        {
          "indexed": false,
          "internalType": "address",
          "name": "token",
          "type": "address"
        },
        {
          "indexed": false,
          "internalType": "uint256",
          "name": "amount",
          "type": "uint256"
        },
        {
          "indexed": false,
          "internalType": "uint256",
          "name": "interval",
          "type": "uint256"
        }
      ],
      "name": "SubscriptionCreated",
      "type": "event"
    },
    {
      "anonymous": false,
      "inputs": [
        {
          "indexed": true,
          "internalType": "uint256",
          "name": "subscriptionId",
          "type": "uint256"
        },
        {
          "indexed": false,
          "internalType": "uint256",
          "name": "newAmount",
          "type": "uint256"
        },
        {
          "indexed": false,
          "internalType": "uint256",
          "name": "newInterval",
          "type": "uint256"
        }
      ],
      "name": "SubscriptionUpdated",
      "type": "event"
    },
    {
      "inputs": [
        {
          "internalType": "address",
          "name": "_receiver",
          "type": "address"
        },
        {
          "internalType": "address",
          "name": "_token",
          "type": "address"
        },
        {
          "internalType": "uint256",
          "name": "_initialAmount",
          "type": "uint256"
        },
        {
          "internalType": "uint256",
          "name": "_recurringAmount",
          "type": "uint256"
        },
        {
          "internalType": "uint256",
          "name": "_interval",
          "type": "uint256"
        }
      ],
      "name": "activate",
      "outputs": [
        {
          "internalType": "uint256",
          "name": "",
          "type": "uint256"
        }
      ],
      "stateMutability": "nonpayable",
      "type": "function"
    },
    {
      "inputs": [
        {
          "internalType": "uint256",
          "name": "_subscriptionId",
          "type": "uint256"
        }
      ],
      "name": "cancelSubscription",
      "outputs": [],
      "stateMutability": "nonpayable",
      "type": "function"
    },
    {
      "inputs": [
        {
          "internalType": "address",
          "name": "_receiver",
          "type": "address"
        },
        {
          "internalType": "address",
          "name": "_token",
          "type": "address"
        },
        {
          "internalType": "uint256",
          "name": "_amount",
          "type": "uint256"
        },
        {
          "internalType": "uint256",
          "name": "_interval",
          "type": "uint256"
        }
      ],
      "name": "createSubscription",
      "outputs": [
        {
          "internalType": "uint256",
          "name": "",
          "type": "uint256"
        }
      ],
      "stateMutability": "nonpayable",
      "type": "function"
    },
    {
      "inputs": [
        {
          "internalType": "uint256",
          "name": "_subscriptionId",
          "type": "uint256"
        }
      ],
      "name": "executeSubscription",
      "outputs": [],
      "stateMutability": "nonpayable",
      "type": "function"
    },
    {
      "inputs": [
        {
          "internalType": "uint256",
          "name": "_subscriptionId",
          "type": "uint256"
        }
      ],
      "name": "getSubscription",
      "outputs": [
        {
          "components": [
            {
              "internalType": "address",
              "name": "sender",
              "type": "address"
            },
            {
              "internalType": "address",
              "name": "receiver",
              "type": "address"
            },
            {
              "internalType": "address",
              "name": "token",
              "type": "address"
            },
            {
              "internalType": "uint256",
              "name": "amount",
              "type": "uint256"
            },
            {
              "internalType": "uint256",
              "name": "interval",
              "type": "uint256"
            },
            {
              "internalType": "uint256",
              "name": "nextPaymentTime",
              "type": "uint256"
            },
            {
              "internalType": "bool",
              "name": "active",
              "type": "bool"
            },
            {
              "internalType": "uint256",
              "name": "totalPaid",
              "type": "uint256"
            },
            {
              "internalType": "uint256",
              "name": "paymentCount",
              "type": "uint256"
            }
          ],
          "internalType": "struct TronPaySubscription.Subscription",
          "name": "",
          "type": "tuple"
        }
      ],
      "stateMutability": "view",
      "type": "function"
    },
    {
      "inputs": [
        {
          "internalType": "uint256",
          "name": "_subscriptionId",
          "type": "uint256"
        }
      ],
      "name": "hasEnoughAllowance",
      "outputs": [
        {
          "internalType": "bool",
          "name": "",
          "type": "bool"
        }
      ],
      "stateMutability": "view",
      "type": "function"
    },
    {
      "inputs": [
        {
          "internalType": "uint256",
          "name": "_subscriptionId",
          "type": "uint256"
        }
      ],
      "name": "isDue",
      "outputs": [
        {
          "internalType": "bool",
          "name": "",
          "type": "bool"
        }
      ],
      "stateMutability": "view",
      "type": "function"
    },
    {
      "inputs": [],
      "name": "nextSubscriptionId",
      "outputs": [
        {
          "internalType": "uint256",
          "name": "",
          "type": "uint256"
        }
      ],
      "stateMutability": "view",
      "type": "function"
    },
    {
      "inputs": [],
      "name": "owner",
      "outputs": [
        {
          "internalType": "address",
          "name": "",
          "type": "address"
        }
      ],
      "stateMutability": "view",
      "type": "function"
    },
    {
      "inputs": [
        {
          "internalType": "uint256",
          "name": "",
          "type": "uint256"
        }
      ],
      "name": "subscriptions",
      "outputs": [
        {
          "internalType": "address",
          "name": "sender",
          "type": "address"
        },
        {
          "internalType": "address",
          "name": "receiver",
          "type": "address"
        },
        {
          "internalType": "address",
          "name": "token",
          "type": "address"
        },
        {
          "internalType": "uint256",
          "name": "amount",
          "type": "uint256"
        },
        {
          "internalType": "uint256",
          "name": "interval",
          "type": "uint256"
        },
        {
          "internalType": "uint256",
          "name": "nextPaymentTime",
          "type": "uint256"
        },
        {
          "internalType": "bool",
          "name": "active",
          "type": "bool"
        },
        {
          "internalType": "uint256",
          "name": "totalPaid",
          "type": "uint256"
        },
        {
          "internalType": "uint256",
          "name": "paymentCount",
          "type": "uint256"
        }
      ],
      "stateMutability": "view",
      "type": "function"
    },
    {
      "inputs": [
        {
          "internalType": "uint256",
          "name": "_subscriptionId",
          "type": "uint256"
        },
        {
          "internalType": "address",
          "name": "_newReceiver",
          "type": "address"
        }
      ],
      "name": "updateReceiver",
      "outputs": [],
      "stateMutability": "nonpayable",
      "type": "function"
    },
    {
      "inputs": [
        {
          "internalType": "uint256",
          "name": "_subscriptionId",
          "type": "uint256"
        },
        {
          "internalType": "uint256",
          "name": "_newAmount",
          "type": "uint256"
        },
        {
          "internalType": "uint256",
          "name": "_newInterval",
          "type": "uint256"
        }
      ],
      "name": "updateSubscription",
      "outputs": [],
      "stateMutability": "nonpayable",
      "type": "function"
    }
  ],
  "bytecode": "0x608060405234801561001057600080fd5b50600280546001600160a01b03191633179055611770806100326000396000f3fe608060405234801561001057600080fd5b50600436106100b45760003560e01c80638da5cb5b116100715780638da5cb5b146101ff5780638de8b9001461022a578063da58935f1461023d578063dc311dd314610246578063e890365614610266578063fefe172a1461027957600080fd5b80630b73a18f146100b957806321235083146100df5780632d5bbf60146100f45780634c6ec871146101b65780634e5a1e2a146101c95780635583a930146101ec575b600080fd5b6100cc6100c7366004611384565b61028c565b6040519081526020015b60405180910390f35b6100f26100ed3660046113d1565b6102f9565b005b61015f6101023660046113d1565b6000602081905290815260409020805460018201546002830154600384015460048501546005860154600687015460078801546008909801546001600160a01b0397881698968816979095169593949293919260ff909116919089565b604080516001600160a01b039a8b168152988a1660208a015296909816958701959095526060860193909352608085019190915260a0840152151560c083015260e0820152610100810191909152610120016100d6565b6100f26101c43660046113ea565b6103eb565b6101dc6101d73660046113d1565b610531565b60405190151581526020016100d6565b6101dc6101fa3660046113d1565b6105dc565b600254610212906001600160a01b031681565b6040516001600160a01b0390911681526020016100d6565b6100cc610238366004611416565b610609565b6100cc60015481565b6102596102543660046113d1565b61092e565b6040516100d69190611458565b6100f26102743660046113d1565b610a26565b6100f26102873660046114d5565b610d55565b600254600090600160a01b900460ff16156102c25760405162461bcd60e51b81526004016102b990611501565b60405180910390fd5b6002805460ff60a01b1916600160a01b1790556102e28686868686610ead565b6002805460ff60a01b191690559695505050505050565b600081815260208190526040902080546001600160a01b031633148061032b575060018101546001600160a01b031633145b6103685760405162461bcd60e51b815260206004820152600e60248201526d139bdd08185d5d1a1bdc9a5e995960921b60448201526064016102b9565b600681015460ff166103b05760405162461bcd60e51b8152602060048201526011602482015270105b1c9958591e4818d85b98d95b1b1959607a1b60448201526064016102b9565b60068101805460ff1916905560405182907fbd2bcea75d16a85f005cd83447e0de57341bf926fe7419e6d553663e91ab4da790600090a25050565b6002546001600160a01b031633146104315760405162461bcd60e51b81526020600482015260096024820152682737ba1037bbb732b960b91b60448201526064016102b9565b6000828152602081905260409020600681015460ff166104635760405162461bcd60e51b81526004016102b990611525565b6001600160a01b0382166104895760405162461bcd60e51b81526004016102b99061155c565b60018101546001600160a01b03908116908316036104d95760405162461bcd60e51b815260206004820152600d60248201526c29b0b6b2903932b1b2b4bb32b960991b60448201526064016102b9565b6001810180546001600160a01b038481166001600160a01b03198316811790935560405191169190829086907fa61d7b1eae34e89744b59e11899c644c1829b7dbac39f0dd73c510e16c77f3dd90600090a450505050565b6000818152602081905260408120600681015460ff166105545750600092915050565b600281015460038201548254604051636eb1769f60e11b81526001600160a01b039182166004820152306024820152921691829063dd62ed3e90604401602060405180830381865afa1580156105ae573d6000803e3d6000fd5b505050506040513d601f19601f820116820180604052508101906105d29190611586565b1015949350505050565b6000818152602081905260408120600681015460ff168015610602575080600501544210155b9392505050565b600254600090600160a01b900460ff16156106365760405162461bcd60e51b81526004016102b990611501565b6002805460ff60a01b1916600160a01b1790556001600160a01b03851661066f5760405162461bcd60e51b81526004016102b99061155c565b6001600160a01b0384166106b55760405162461bcd60e51b815260206004820152600d60248201526c24b73b30b634b2103a37b5b2b760991b60448201526064016102b9565b600083116106d55760405162461bcd60e51b81526004016102b99061159f565b600082116106f55760405162461bcd60e51b81526004016102b9906115cb565b603c8210156107165760405162461bcd60e51b81526004016102b9906115f9565b604051636eb1769f60e11b815233600482015230602482015284906000906001600160a01b0383169063dd62ed3e90604401602060405180830381865afa158015610765573d6000803e3d6000fd5b505050506040513d601f19601f820116820180604052508101906107899190611586565b9050848110156107ab5760405162461bcd60e51b81526004016102b990611625565b60018054600091826107bc8361166b565b919050559050604051806101200160405280336001600160a01b03168152602001896001600160a01b03168152602001886001600160a01b0316815260200187815260200186815260200186426108139190611684565b81526001602080830182905260006040808501829052606094850182905286825281835290819020855181546001600160a01b03199081166001600160a01b0392831617835587850151958301805482169683169690961790955586830151600283018054909616908216179094558585015160038201556080860151600482015560a0860151600582015560c086015160068201805460ff191691151591909117905560e086015160078201556101009095015160089095019490945583518b831681529081018a90529283018890528a1691339184917f818ee5f93d6e5cd1e7c2a990db4ebb6cec0d4fb9f9a3b44720eb1ee90a10ad54910160405180910390a46002805460ff60a01b19169055979650505050505050565b61099a60405180610120016040528060006001600160a01b0316815260200160006001600160a01b0316815260200160006001600160a01b0316815260200160008152602001600081526020016000815260200160001515815260200160008152602001600081525090565b506000908152602081815260409182902082516101208101845281546001600160a01b03908116825260018301548116938201939093526002820154909216928201929092526003820154606082015260048201546080820152600582015460a0820152600682015460ff16151560c0820152600782015460e082015260089091015461010082015290565b600254600160a01b900460ff1615610a505760405162461bcd60e51b81526004016102b990611501565b6002805460ff60a01b1916600160a01b1790556000818152602081905260409020600681015460ff16610a955760405162461bcd60e51b81526004016102b990611525565b8060050154421015610ad55760405162461bcd60e51b8152602060048201526009602482015268546f6f206561726c7960b81b60448201526064016102b9565b60028101548154604051636eb1769f60e11b81526001600160a01b039182166004820152306024820152911690600090829063dd62ed3e90604401602060405180830381865afa158015610b2d573d6000803e3d6000fd5b505050506040513d601f19601f82011682018060405250810190610b519190611586565b90508260030154811015610b775760405162461bcd60e51b81526004016102b990611625565b600383015483546040516370a0823160e01b81526001600160a01b039182166004820152908416906370a0823190602401602060405180830381865afa158015610bc5573d6000803e3d6000fd5b505050506040513d601f19601f82011682018060405250810190610be99190611586565b1015610c2e5760405162461bcd60e51b8152602060048201526014602482015273496e73756666696369656e742062616c616e636560601b60448201526064016102b9565b6000836005015442610c40919061169d565b90506000846004015482610c5491906116b0565b610c5f906001611684565b9050846004015481610c7191906116d2565b8560050154610c809190611684565b60058601556003850154600786018054600090610c9e908490611684565b925050819055506001856008016000828254610cba9190611684565b90915550506002850154855460018701546003880154610cea936001600160a01b03908116938116921690611252565b600185015485546003870154604080519182524260208301526001600160a01b03938416939092169189917f64dcc45c8bf26314103700cb3e251d47cdee628e30b916bbe4ad32ab67350bc6910160405180910390a450506002805460ff60a01b1916905550505050565b600083815260208190526040902080546001600160a01b0316331480610d87575060018101546001600160a01b031633145b80610d9c57506002546001600160a01b031633145b610dd95760405162461bcd60e51b815260206004820152600e60248201526d139bdd08185d5d1a1bdc9a5e995960921b60448201526064016102b9565b600681015460ff16610dfd5760405162461bcd60e51b81526004016102b990611525565b60008311610e1d5760405162461bcd60e51b81526004016102b99061159f565b60008211610e3d5760405162461bcd60e51b81526004016102b9906115cb565b603c821015610e5e5760405162461bcd60e51b81526004016102b9906115f9565b6003810183905560048101829055604080518481526020810184905285917f6f6a7fe5088cede257ecba456c6bd063ac27a8f7ed056bdc49ea01c8d2d2e534910160405180910390a250505050565b60006001600160a01b038616610ed55760405162461bcd60e51b81526004016102b99061155c565b6001600160a01b038516610f1b5760405162461bcd60e51b815260206004820152600d60248201526c24b73b30b634b2103a37b5b2b760991b60448201526064016102b9565b60008311610f3b5760405162461bcd60e51b81526004016102b99061159f565b60008211610f5b5760405162461bcd60e51b81526004016102b9906115cb565b603c821015610f7c5760405162461bcd60e51b81526004016102b9906115f9565b604051636eb1769f60e11b815233600482015230602482015285906000906001600160a01b0383169063dd62ed3e90604401602060405180830381865afa158015610fcb573d6000803e3d6000fd5b505050506040513d601f19601f82011682018060405250810190610fef9190611586565b9050610ffb8587611684565b81101561101a5760405162461bcd60e51b81526004016102b990611625565b6040516370a0823160e01b815233600482015286906001600160a01b038416906370a0823190602401602060405180830381865afa158015611060573d6000803e3d6000fd5b505050506040513d601f19601f820116820180604052508101906110849190611586565b10156110c95760405162461bcd60e51b8152602060048201526014602482015273496e73756666696369656e742062616c616e636560601b60448201526064016102b9565b85156110db576110db87338a89611252565b60018054600091826110ec8361166b565b919050559050604051806101200160405280336001600160a01b031681526020018a6001600160a01b03168152602001896001600160a01b0316815260200187815260200186815260200186426111439190611684565b81526001602080830182905260006040808501829052606094850182905286825281835290819020855181546001600160a01b03199081166001600160a01b0392831617835587850151958301805482169683169690961790955586830151600283018054909616908216179094558585015160038201556080860151600482015560a0860151600582015560c086015160068201805460ff191691151591909117905560e086015160078201556101009095015160089095019490945583518c831681529081018a90529283018890528b1691339184917f818ee5f93d6e5cd1e7c2a990db4ebb6cec0d4fb9f9a3b44720eb1ee90a10ad54910160405180910390a498975050505050505050565b604080516001600160a01b0385811660248301528481166044830152606480830185905283518084039091018152608490920183526020820180516001600160e01b03166323b872dd60e01b17905291516000928392908816916112b691906116e9565b6000604051808303816000865af19150503d80600081146112f3576040519150601f19603f3d011682016040523d82523d6000602084013e6112f8565b606091505b50915091508180156113225750805115806113225750808060200190518101906113229190611718565b6113605760405162461bcd60e51b815260206004820152600f60248201526e151c985b9cd9995c8819985a5b1959608a1b60448201526064016102b9565b505050505050565b80356001600160a01b038116811461137f57600080fd5b919050565b600080600080600060a0868803121561139c57600080fd5b6113a586611368565b94506113b360208701611368565b94979496505050506040830135926060810135926080909101359150565b6000602082840312156113e357600080fd5b5035919050565b600080604083850312156113fd57600080fd5b8235915061140d60208401611368565b90509250929050565b6000806000806080858703121561142c57600080fd5b61143585611368565b935061144360208601611368565b93969395505050506040820135916060013590565b81516001600160a01b0390811682526020808401518216908301526040808401519182169083015261012082019050606083015160608301526080830151608083015260a083015160a083015260c08301516114b860c084018215159052565b5060e083015160e083015261010080840151818401525092915050565b6000806000606084860312156114ea57600080fd5b505081359360208301359350604090920135919050565b6020808252600a90820152695265656e7472616e637960b01b604082015260600190565b60208082526017908201527f537562736372697074696f6e206e6f7420616374697665000000000000000000604082015260600190565b60208082526010908201526f24b73b30b634b2103932b1b2b4bb32b960811b604082015260600190565b60006020828403121561159857600080fd5b5051919050565b6020808252601290820152710416d6f756e74206d757374206265203e20360741b604082015260600190565b6020808252601490820152730496e74657276616c206d757374206265203e20360641b604082015260600190565b602080825260129082015271125b9d195c9d985b081d1bdbc81cdb585b1b60721b604082015260600190565b602080825260169082015275496e73756666696369656e7420616c6c6f77616e636560501b604082015260600190565b634e487b7160e01b600052601160045260246000fd5b60006001820161167d5761167d611655565b5060010190565b8082018082111561169757611697611655565b92915050565b8181038181111561169757611697611655565b6000826116cd57634e487b7160e01b600052601260045260246000fd5b500490565b808202811582820484141761169757611697611655565b6000825160005b8181101561170a57602081860181015185830152016116f0565b506000920191825250919050565b60006020828403121561172a57600080fd5b8151801515811461060257600080fdfea2646970667358221220c3d2f3a986e6de2467d06b48cd5b26b0024855221a351663f5cfdb26b1e9d62464736f6c63430008140033",
  "linkReferences": {},
  "deployedLinkReferences": {}
}